:020000040000FA
:10000000600200104901000051010000530100008E
:1000100000000000000000000000000000000000E0
:10002000000000000000000000000000550100007A
:10003000000000000000000057010000590100000E
:100040005B0100005B0100005B0100005B01000040
:100050005B0100005B0100005B0100005B01000030
:100060005B0100005B0100005B0100005B01000020
:100070005B0100005B0100005B0100005B01000010
:100080005B0100005B0100005B0100005B01000000
:100090005B0100005B0100005B0100005B010000F0
:1000A0005B0100005B0100005B0100005B010000E0
:1000B0005B0100005B0100005B0100005B010000D0
:1000C00000F002F800F030F80CA030C8083824180E
:1000D0002D18A246671EAB4654465D46AC4201D180
:1000E00000F022F87E460F3E0FCCB6460126334282
:1000F00000D0FB1AA246AB4633431847E00100008C
:10010000F00100000023002400250026103A01D34E
:1001100078C1FBD8520700D330C100D50B607047BF
:100120001FB51FBD10B510BD00F02BF81146FFF72D
:10013000F7FF00F0B1F800F043F803B4FFF7F2FF67
:1001400003BC00F049F80000074880470748004713
:10015000FEE7FEE7FEE7FEE7FEE7FEE704480549A7
:10016000034A054B7047000001030000C100000076
:1001700060000010600200106000001070477047BF
:100180007047754600F024F8AE46050069465346B0
:10019000C008C000854618B020B5FFF7DFFF60BC7F
:1001A00000274908B6460026C0C5C0C5C0C5C0C5A1
:1001B000C0C5C0C5C0C5C0C5403D49008D467047DB
:1001C00010B50446C046C0462046FFF7B6FF10BD36
:1001D000004870470000001001491820ABBEFEE740
:1001E0002600020070470000002007E0002101E027
:1001F0004A1C91B2C829FBDB421C90B2014A9042D2
:10020000F4DB7047881300001F48006801210904CF
:1002100008431D4908601D488068C008C0001B498C
:1002200088600846806888600846806AC008C00008
:1002300088620846806A88621348006801210904C0
:10024000884311490860084600684021C9430843B3
:100250000D4908600E480068012108430C490860F8
:100260000C48C06B012108430A49C863084800686C
:1002700002210843064908600648C06B0221084372
:100280000449C86370470000808004400040044077
:1002900000800250C03F0250FFF7B6FF1BE0FFF79F
:1002A000A3FF0D48C06B400840000B49C8630846D7
:1002B000C06B022108430849C863FFF795FF064851
:1002C000C06B012108430449C8630846C06B022182
:1002D00088430149C863E2E7C03F0250A003000021
:1002E0000000001060020000040100000000000097
:1002F000000000000000000000000000FFFFFFFF02
:1003000008B52548806B2021884323498863002055
:1003100022490862009003E000BF0098401C009052
:100320000098C828F8D301201C4940310860486073
:10033000002048600120486000BF184840304068F5
:10034000C007C00F0028F8D0232014498860124845
:10035000806B802188431049886300BF0F48C068C4
:10036000C007C00F0028F9D003200C4940310863B2
:1003700001204863002048630120486300BF07480C
:100380004030406BC007C00F0028F8D0012003495F
:100390004031886308BD00000082044000800440B2
:04000005000000C136
:00000001FF
